:020000040800F2
:1000000090040020A5140008191400081B1400080F
:100010001D1400081F14000821140008000000002F
:100020000000000000000000000000002314000891
:1000300025140008000000002714000829140008F7
:10004000D1140008D5140008D9140008DD140008E4
:10005000E1140008E5140008E9140008ED14000894
:10006000F1140008F5140008F91400082D14000814
:10007000FD14000801150008051500080915000801
:100080000D150008111500081515000819150008B0
:100090001D15000821150008251500082915000860
:1000A0002D15000831150008351500083915000810
:1000B0003D150008411500084515000849150008C0
:1000C0004D15000851150008551500085915000870
:1000D0005D15000861150008651500086915000820
:1000E0006D1500087115000875150008F8B504466F
:1000F00000270026002C71D004F12405686820B97F
:10010000AE602870204600F086FA204600F0EEF936
:100110006968CA065ED401005CD1696821F488511F
:1001200041F0020169606368E269217B1343A268C0
:10013000B2F5807F14BF012A4FF48077227D012A17
:1001400043EA41030FD131B9A169491E490341F482
:1001500000610F4307E0696841F020016960A96808
:1001600041F00101A96021684A6822F469421743FD
:100170004F602268DFF8501397680F401F43976065
:10018000A168B1F5807F18BF012902D12669761ECA
:1001900036052168CA6A22F470021643CE622468CA
:1001A000DFF82813A2680A409A4208D10023AB6006
:1001B000696821F0020141F001016960F2BD6868DF
:1001C00020F0020040F010006860A86840F00100D4
:1001D000A86003E0686840F0100068600120F2BD8C
:1001E000044604F12405287801287047012028706E
:1001F000204632E12DE9F047044689462068DFF8C1
:10020000E012DFF8D482DFF8D472884218BF40458C
:10021000924603D1386810F4702F68D1FFF7E1FFE0
:1002200008BF022065D0FFF7E1FF002806465BD13A
:100230006968DFF8A002014041F4807169602068BC
:10024000404518D1396811F4702F14D0686840F413
:10025000801068603968480505D5696821F4005147
:1002600041F4805169606868C10446BFA86820F005
:10027000060000200DE0696821F480116960406883
:100280004105F0D5686820F4005040F48050686063
:10029000E9E7A860002129705346226A0FF29D20E9
:1002A0009062216A0FF2DD20C862216A0FF2DD2020
:1002B00008636FF00200226810604A462068816877
:1002C00041F480718160206800F14C01206A00F0E7
:1002D0001EFA206800F00FF881680CBF41F4A001FD
:1002E00041F48011816003E00020287000E00126C5
:1002F0003046BDE8F087816801F46021B1F5602FD8
:10030000704738B500F021F801D1022032BD00F06D
:1003100022F8010016D129688A6822F480728A6066
:10032000296A91F82120022A0CD1084600F029FA06
:100330000100616806BF21F4885141F0010141F0DC
:10034000400161600021217032BD054605F12404A1
:10035000207801287047012020702846C6E0F8B5B3
:100360000A46002100F1240300911C78012C01D1E0
:100370000220F2BD01241C701F275468156806680E
:10038000072C08D2641E04EB8404D6F834C000F0B5
:100390005EF8756312E00D2C08D2E41F04EB8404B0
:1003A000D6F830C000F053F8356307E00D3C04EB9D
:1003B0008404D6F82CC000F04AF8F56207271668C6
:1003C000946805680A2E08D30A3E06EB4606D5F85F
:1003D0000CC000F036F8EC6006E006EB4606D5F8F7
:1003E00010C000F02EF82C611468102C18BF112CCE
:1003F00023D100683A4CA0421AD13A4805682C0231
:100400001BD4056845F4000505601068102814D158
:100410002F4A354D1468B4FBF5F50A204543009585
:10042000009800281EBF0098401E0090F8D104E0FC
:100430000121586840F020005860002018700846DC
:10044000F2BDB7402CEA0707B4403C437047A740D1
:100450002CEA0707A5403D43704738B50446002005
:10046000009020688168CA072CD481681E4A41F038
:100470000101816016480168B1FBF2F2009202E0CE
:100480000098401E009000980028F9D100F082FAF0
:10049000054600F04FF815D400F07CFA401B032805
:1004A000F7D300F047F8F4D404F1240000224168A7
:1004B00041F010014160816841F0010181600270EA
:1004C000012032BD002032BDFDF7E1FFFE0E1FFF0F
:1004D0000C000020FEF1FFFF002801400424014031
:1004E000002401400824014040420F0038B5044672
:1004F00020688168CA071BD5816849084900816066
:1005000000F048FA054600F015F811D500F042FA5F
:10051000401B0328F7D300F00DF8F4D5A16A41F091
:100520001001A162E06A40F00100E062012032BDEA
:10053000002032BD20688168C8077047416A8A6A16
:1005400012F0500F1BD1886A40F4007088620A686C
:10055000906800F46020B0F5602F04BF087B00288D
:100560000AD1886A20F480708862886AC20403D441
:10057000886A40F001008862084600F011BA096AF2
:100580000A6B1047406A00F00CBA0000406A816AAA
:1005900041F040018162C16A41F00401C16200F092
:1005A00001BA30B4002513E050F8042BD30744BF40
:1005B000A9F101039A18091F042942F8045BFAD231
:1005C00013468C0744BF15809B1CC90748BF1D708C
:1005D00050F8041B0029E7D130BC70472F4881B088
:1005E000016841F001010160026802F0010200921D
:1005F0000099426842F080524260406800F08050AA
:10060000009000982648016821F0E06141F0806187
:10061000016001B0704730B585B00446102200215A
:1006200001A800F0C0F921681E48814233D11B485F
:100630001D4D016841F400710160026802F400720E
:1006400000920099026842F00402026003220068EE
:1006500000F00400009000990192029201A9134851
:1006600000F0ACF912482860002169608020E86041
:100670004FF4807129614FF480600022686120216D
:10068000AA60A961EA61284600F014F808B100F0F8
:10069000FFFA25626C6205B030BD00001810024000
:1006A0000400014000240140100000200008014027
:1006B0000800024030B508B9012030BD0468DFF8F9
:1006C00060120919142200F13803B1FBF2F2920012
:1006D0009A600222DFF84C12596080F821202568C8
:1006E000416882686FF30D150D43C16815430269B7
:1006F0000D434169154382690D43C16915430D439B
:10070000256000241C6000F061F8002030BDF8B5C1
:100710000446002594F82000012801D10220F2BDF2
:1007200094F821600120012E84F8200024D10220B9
:1007300004F12C0684F82100F560206807687F0822
:100740007F000760204600F0FDF82168306820B186
:100750000A6842F00E020A6008E0086820F004000F
:1007600008602068016841F00A01016020680168A2
:1007700041F00101016002E084F820500225284682
:10078000F2BD10B590F82110022900F1380206D010
:1007900004231360002180F82010012010BD01689F
:1007A0000B6823F00E030B60012301680C686408DA
:1007B00064000C60916852688B40536001210022F4
:1007C00080F8211080F82020002010BD012280F840
:1007D000212080F8204070472DE9F84F00F12802D1
:1007E00004275169554BD1F800E0056854492E683B
:1007F000D2F818A0504CDFF83C81DFF83491DFF8D4
:100800002CB1DFF824C107FA0AF71EEA070F2DD032
:1008100077072BD52E68B60603D42E6826F004067B
:100820002E600568654508BF042318D05D4508BFE4
:10083000402314D04D4508BF4FF480630FD0454589
:1008400008BF4FF480430AD0A54208BF4FF480236D
:1008500005D09D420CBF4FF480034FF080630B60C6
:100860005168002958D0BDE8F44F0847022707FA1D
:100870000AF71EEA070F32D0B70730D52E68B60642
:1008800006D42E6826F00A062E60012580F8215035
:100890000568654508BF022318D05D4508BF2023C1
:1008A00014D04D4508BF4FF400730FD0454508BF25
:1008B0004FF400530AD0A54208BF4FF4003305D0CF
:1008C0009D420CBF4FF400134FF000730B600021EA
:1008D00080F820101168F9B1BDE8F44F08470821ED
:1008E00001FA0AF11EEA010F16D0310714D52B6860
:1008F00023F00E032B600124916953698C405C60E6
:100900000121116180F82110002180F820109168E8
:1009100011B1BDE8F44F0847BDE8F18F00000000B9
:10092000F8FFFDBF00000240080002401C0002402A
:100930003000024044000240580002406C00024077
:100940000400024070B5046CC66B0125A5407560BB
:10095000046863604068102802D1A260E16070BD45
:10096000A160E26070BD30B40EE0026843680244EA
:100970000830DC0744BFA9F10104E31852F8045B16
:1009800043F8045B091FF9D150F8041B0029ECD18E
:1009900030BC704701484068704700BF000000202D
:1009A00070477047704710B5044610460A46014626
:1009B000204600F06FF9204610BD00002DE9F847F1
:1009C0004FF0000E00245D4A5D4BDFF878814FF058
:1009D0000F0982460CE0D7683840D06006E0956089
:1009E0004D68AD02F7D5D0680743D7600EF1010E10
:1009F0000F6837FA0EF000F09F80012000FA0EF623
:100A00003740B742F2D1486838B301281AD00228DB
:100A10001DD003282ED0112816D012281AD04A4DE6
:100A2000A8421CBF494DA84217D0494DA8421CBF3F
:100A3000484DA84211D0484DA8421CBF474DA8427E
:100A40000BD018E0CC6816E0CC68241D13E0CC680D
:100A5000083410E0CC680C340DE0886808B9042430
:100A600009E0012819BF0824CAF814600824CAF84C
:100A7000106000E00024B7F5807F03D250464FEAB3
:100A80008E0C05E0AEF108050AF104004FEA850C72
:100A9000056809FA0CF6B54304FA0CF6354305600F
:100AA0004868C000A2D5D8F8000040F00100C8F89E
:100AB0000000D8F8005005F0010500954FEA8E05BA
:100AC00000984FEA9E0053F8206005F00C0C09FADC
:100AD0000CF526EA0505224EB24508BF00260ED0C9
:100AE000204EB24508BF012609D01F4EB24508BFAF
:100AF000022604D01D4EB2450CBF0326042606FA7A
:100B00000CF6354343F82050F8434D68ED03156863
:100B10004CBF3D43054015604D68AD0355684CBF63
:100B20003D43054055604D689668ED024CBF47EA6D
:100B3000060500EA060552E7BDE8F187000401401A
:100B400008000140181002400000111000001210AF
:100B500000002110000022100000311000003210AF
:100B600000080140000C0140001001400014014049
:100B70001FB500F0C3F800F053F82648264C416832
:100B800041F004014160416801F0040100910099C5
:100B9000026842F0010202600022006800F00100D9
:100BA0000090002100980B2000F0D4F80B2000F0FA
:100BB000EEF80C2200216846FFF7F5FE0021A16047
:100BC00021734FF4602115482060E16100202075F9
:100BD0006060012121612046FFF788FA08B100F02A
:100BE00057F80020012100900191029069462046AB
:100BF000FFF7B5FB08B100F04BF8022204F1300119
:100C00002046FFF7F7FA0A2000F0ECF82046FFF73D
:100C100078FBF2E714100240540000200024014049
:100C200000B593B02822002109A8FFF7BCFE1422CA
:100C300000216846FFF7B7FE1022002105A8FFF744
:100C4000B2FE0221012209910D92102100220E9183
:100C5000109209A800F0DAF808B100F019F80F2096
:100C6000009000210191029103910491684600F0E7
:100C700057FA08B172B6FEE70221002205910792E9
:100C800005A800F00FFB08B172B6FEE713B000BD77
:100C900072B6FEE762F30F2262F31F42401810F0B3
:100CA000030308D0C91A1FD3DB0748BF00F8012D82
:100CB00028BF20F8022D130030B414461546103911
:100CC00028BF20E93C00FAD8490728BF20E90C00DA
:100CD00048BF40F8042D890028BF20F8022D48BFE6
:100CE00000F8012D30BC7047C91818BF00F8012D5D
:100CF000CB0728BF00F8012D7047000080B50748DA
:100D0000016841F010010160032000F016F8002096
:100D100000F03CFBFFF762FC002002BD0020024017
:100D20000901020002D4294881547047284B02F07F
:100D30000F021A4402F8041C7047264B19684FF63C
:100D4000FF020002114000F4E0600843224908431A
:100D50001860704770B51F4B1C68C4F30223012450
:100D6000C3F10705052D2EBF0F2504FA05F56D1EED
:100D70001E1D072E34BF0023DB1E2940994004FAB4
:100D800003F3BDE870405B1E1A401143C8E7010041
:100D900007D4012200F01F01104B8A40400943F89C
:100DA0002020704710B5401EB0F1807F01D3012094
:100DB00010BD0B4C60600F214FF0FF30FFF7B0FF0C
:100DC0000021A16007202060002010BD00E400E0A9
:100DD00018ED00E00CED00E00000FA0500E100E095
:100DE00010E000E038B50446FFF7D4FD14F1010F20
:100DF000054602D0044908780419FFF7CBFD401BD3
:100E0000A042FAD331BD00BF000000202DE9F84315
:100E1000040016D02078DFF84C64C10713D5706841
:100E200000F00C00042807D0706800F00C000828BF
:100E300041D17068C1033ED53068810303D5606835
:100E4000002800F064812078DFF82874810719D524
:100E5000706810F00C0F07D0706800F00C000828C4
:100E600061D17068C1035ED43068810703D5206901
:100E7000012840F04C813168606921F0F80141EAB5
:100E8000C00131602178080740F18180A069DFF856
:100E9000E813002800F0A68001220A60FFF77AFD1F
:100EA0000546706A810763D4FFF774FD401B022872
:100EB000F7D903202EE16068B0F5803F04D1306897
:100EC00040F48030306014E008B930680AE0B0F5D2
:100ED000A02F306806D140F480203060316841F4A2
:100EE000803105E020F480303060316821F48021C9
:100EF0003160606858B1FFF74DFD054630688103E9
:100F0000A1D4FFF747FD401B6528F7D3D1E7FFF7D2
:100F100041FD05463068810395D5FFF73BFD401B39
:100F20006528F7D3C5E72069A8B101213960FFF72B
:100F300031FD05463068810705D4FFF72BFD401BC6
:100F40000228F7D9B5E73068616920F0F80040EA77
:100F5000C100306096E73860FFF71CFD0546316838
:100F600088078FD5FFF716FD401B0228F7D9A0E7A9
:100F7000DFF8F4020168C9084FF47A72B1FBF2F2AB
:100F8000009200BF0098411E00280091F9D12078FE
:100F900041076ED5F0690025C10009D4F06940F021
:100FA0008050F0610125F06900F0805000900098B9
:100FB000DFF8C882D8F80000C10520D4D8F80000B6
:100FC00040F48070C8F80000FFF7E4FC8146D8F8D0
:100FD0000000C10513D4FFF7DDFCA0EB0900652874
:100FE000F5D366E70860FFF7D5FC0546706A810710
:100FF000CDD5FFF7CFFC401B0228F7D959E7E068B1
:10100000012808D008B9306A09E00528306A06D1FD
:1010100040F004003062306A40F0010005E0400812
:1010200040003062306A20F00400306241F28938BA
:10103000E06860B1FFF7AEFC8146306A810713D4E7
:10104000FFF7A8FCA0EB09004045F6D331E7FFF716
:10105000A1FC8146306A810706D5FFF79BFCA0EB17
:1010600009004045F6D324E71DB1F06920F0805017
:10107000F061E06900284CD0716801F00C0108298A
:1010800038D002282AD100F047F80546306881019F
:1010900005D5FFF77FFC401B0228F7D909E7206A36
:1010A000B0F5803F05D17168A06821F4003101439B
:1010B00071607268206A616A22F4741202430A4302
:1010C0007260012000F029F804463068810120D4C4
:1010D000FFF760FC001B0228F7D9EAE600F01CF8D5
:1010E00004463068810114D5FFF754FC001B022828
:1010F000F7D9DEE601280AD07068226A00F4803150
:10110000914202BF00F47010616A884201D0012050
:1011100000E00020BDE8F28300203866FFF73ABC0B
:101120002DE9F041040088464ED0554E00F077F886
:1011300002D200F06FF847D120684A4D810712D5DE
:10114000400703D5696841F4E061696020780107D0
:1011500003D5686840F4605068606968A06821F051
:10116000F001014369602178C80725D5606801282E
:1011700002D129688A0303E00228296802D18A0182
:1011800002D421E08A071FD56968890840EA8100F6
:101190006860FFF7FFFB07466868616800F00C00B5
:1011A000B0EB810F08D0FFF7F5FBC01B41F289318E
:1011B0008842F1D303202BE0306800F0070080451F
:1011C00004D200F027F801D0012021E02078410767
:1011D00005D56A68E06822F4E06202436A6021781B
:1011E000080706D56968206921F4605141EAC00109
:1011F000696000F019F86A6822491B4BC2F30312B8
:10120000895CC84018601A48006800F0BFF80020E8
:10121000BDE8F0813168C90848EAC1013160306831
:1012200000F0070040457047174910480A6802F06F
:101230000C03082B00D0704710B500BF14A4C2F3F4
:101240008343D203E35C08D50968584314A3C1F370
:1012500040415A5CB0FBF2F010BD18460B494843C0
:1012600010BD0000001002400C00002000127A00A7
:10127000080000200000424280044242007000400A
:1012800000200240941400080410024000093D00B0
:1012900002030405060708090A0B0C0D0E0F1010B7
:1012A000010200002DE9FC410646354D3078C107AA
:1012B00050D5A8690024C10009D4A86940F0805025
:1012C000A8610124A86900F08050009000982D4F7B
:1012D0003868C10511D4386840F480703860FFF771
:1012E00059FB80463868C10507D4FFF753FBA0EBD4
:1012F00008006528F6D303203FE0E86910F4407049
:101300001EBF716801F44071884218D01E49E86917
:1013100001220A60002320F440700B60E861C007DE
:101320000DD5FFF737FB0746E869810707D4FFF7BC
:1013300031FBC01B41F289318842F5D3DBE7EA6912
:10134000706822F440720243EA611CB1A86920F07F
:101350008050A8613078810705D52A68B06822F4EA
:10136000404202432A603178C80605D52968F068F2
:1013700021F48001014329600020BDE8F6810000CE
:1013800004100240007000404004424238B50D4D48
:101390000D4B2A7804464FF47A711868B1FBF2F2CB
:1013A000B0FBF2F0FFF7FEFC50B9102C08D200227F
:1013B00021464FF0FF30FFF7CDFCAC60002032BD7E
:1013C000012032BD000000200C00002010B50749AC
:1013D00079441831064C7C44163404E00A68081D30
:1013E000114488470146A142F8D110BD0800000011
:1013F00028000000AFF1FFFF7C000000100000207B
:101400000000000063F5FFFF10000000A8000000CE
:101410000000002000000000FEE7FEE7FEE7FEE718
:10142000FEE770477047704700F006B80148FFF7C5
:10143000D3B900001000002002494A6808788218D9
:101440004A6070470000002000F00DF8002801D02D
:10145000FFF7BCFFAFF300800020AFF30080FFF781
:1014600087FB00F002F80120704700F001B800008F
:101470000746384600F002F8FBE7000080B5AFF3FE
:101480000080024A11001820ABBEFBE726000200D4
:10149000704700000000000000000000010203048B
:1014A00006070809014880470148004791140008D1
:1014B000C51400080100000000000000100000003A
:1014C0000024F400AFF30080AFF30080FFF7BCFF0F
:1014D000FFF7FEBFFFF7FEBFFFF7FEBFFFF7FEBF40
:1014E000FFF7FEBFFFF7FEBFFFF7FEBFFFF7FEBF30
:1014F000FFF7FEBFFFF7FEBFFFF7FEBFFFF7FEBF20
:10150000FFF7FEBFFFF7FEBFFFF7FEBFFFF7FEBF0F
:10151000FFF7FEBFFFF7FEBFFFF7FEBFFFF7FEBFFF
:10152000FFF7FEBFFFF7FEBFFFF7FEBFFFF7FEBFEF
:10153000FFF7FEBFFFF7FEBFFFF7FEBFFFF7FEBFDF
:10154000FFF7FEBFFFF7FEBFFFF7FEBFFFF7FEBFCF
:10155000FFF7FEBFFFF7FEBFFFF7FEBFFFF7FEBFBF
:10156000FFF7FEBFFFF7FEBFFFF7FEBFFFF7FEBFAF
:08157000FFF7FEBFFFF7FEBF0D
:04000005080014C516
:00000001FF
