:020000040800F2
:1000000040040020090F0008D10E0008D30E00089C
:10001000D50E0008D70E0008D90E00080000000019
:10002000000000000000000000000000DB0E0008DF
:10003000DD0E000800000000DF0E0008E10E0008E1
:10004000250F0008290F00082D0F0008310F0008A8
:10005000350F0008390F00083D0F0008410F000858
:10006000450F0008490F00084D0F0008510F000808
:10007000550F0008590F00085D0F0008610F0008B8
:10008000650F0008690F00086D0F0008710F000868
:10009000750F0008790F00087D0F0008810F000818
:1000A000850F0008890F00088D0F0008910F0008C8
:1000B000950F0008990F00089D0F0008A10F000878
:1000C000A50F0008A90F0008AD0F0008B10F000828
:1000D000B50F0008B90F0008BD0F0008C10F0008D8
:1000E000C50F0008C90F0008CD0F00082DE9F8431F
:1000F000040016D02078DFF84C64C10713D570686F
:1001000000F00C00042807D0706800F00C000828EC
:1001100041D17068C1033ED53068810303D5606862
:10012000002800F064812078DFF82874810719D551
:10013000706810F00C0F07D0706800F00C000828F1
:1001400061D17068C1035ED43068810703D520692E
:10015000012840F04C813168606921F0F80141EAE2
:10016000C00131602178080740F18180A069DFF883
:10017000E813002800F0A68001220A6000F002FACD
:100180000546706A810763D400F0FCF9401B022821
:10019000F7D903202EE16068B0F5803F04D13068C4
:1001A00040F48030306014E008B930680AE0B0F5FF
:1001B000A02F306806D140F480203060316841F4CF
:1001C000803105E020F480303060316821F48021F6
:1001D0003160606858B100F0D5F905463068810398
:1001E000A1D400F0CFF9401B6528F7D3D1E700F088
:1001F000C9F905463068810395D500F0C3F9401B65
:100200006528F7D3C5E72069A8B10121396000F05E
:10021000B9F905463068810705D400F0B3F9401BF1
:100220000228F7D9B5E73068616920F0F80040EAA4
:10023000C100306096E7386000F0A4F905463168E7
:1002400088078FD500F09EF9401B0228F7D9A0E758
:10025000DFF8F4020168C9084FF47A72B1FBF2F2D8
:10026000009200BF0098411E00280091F9D120782B
:1002700041076ED5F0690025C10009D4F06940F04E
:100280008050F0610125F06900F0805000900098E6
:10029000DFF8C882D8F80000C10520D4D8F80000E3
:1002A00040F48070C8F8000000F06CF98146D8F87E
:1002B0000000C10513D400F065F9A0EB0900652822
:1002C000F5D366E7086000F05DF90546706A8107BE
:1002D000CDD500F057F9401B0228F7D959E7E0685F
:1002E000012808D008B9306A09E00528306A06D12B
:1002F00040F004003062306A40F0010005E0400840
:1003000040003062306A20F00400306241F28938E7
:10031000E06860B100F036F98146306A810713D495
:1003200000F030F9A0EB09004045F6D331E700F0CA
:1003300029F98146306A810706D500F023F9A0EB40
:1003400009004045F6D324E71DB1F06920F0805044
:10035000F061E06900284CD0716801F00C010829B7
:1003600038D002282AD100F047F8054630688101CC
:1003700005D500F007F9401B0228F7D909E7206AE4
:10038000B0F5803F05D17168A06821F400310143C8
:1003900071607268206A616A22F4741202430A432F
:1003A0007260012000F029F804463068810120D4F1
:1003B00000F0E8F8001B0228F7D9EAE600F01CF884
:1003C00004463068810114D500F0DCF8001B0228D7
:1003D000F7D9DEE601280AD07068226A00F480317D
:1003E000914202BF00F47010616A884201D001207E
:1003F00000E00020BDE8F2830020386600F0C2B8BB
:100400002DE9F041040088464ED0554E00F077F8B3
:1004100002D200F06FF847D120684A4D810712D50B
:10042000400703D5696841F4E061696020780107FD
:1004300003D5686840F4605068606968A06821F07E
:10044000F001014369602178C80725D5606801285B
:1004500002D129688A0303E00228296802D18A01AF
:1004600002D421E08A071FD56968890840EA810023
:10047000686000F087F807466868616800F00C0063
:10048000B0EB810F08D000F07DF8C01B41F289313C
:100490008842F1D303202BE0306800F0070080454C
:1004A00004D200F027F801D0012021E02078410794
:1004B00005D56A68E06822F4E06202436A60217848
:1004C000080706D56968206921F4605141EAC00136
:1004D000696000F019F86A6822491B4BC2F30312E5
:1004E000895CC84018601A48006800F051F8002084
:1004F000BDE8F0813168C90848EAC101316030685F
:1005000000F0070040457047174910480A6802F09C
:100510000C03082B00D0704710B500BF14A4C2F321
:100520008343D203E35C08D50968584314A3C1F39D
:1005300040415A5CB0FBF2F010BD18460B494843ED
:1005400010BD0000001002400C00002000127A00D4
:100550000800002000004242800442420070004037
:1005600000200240F80E00080410024000093D007F
:1005700002030405060708090A0B0C0D0E0F1010E4
:100580000102000001484068704700BF00000020E1
:1005900038B50D4D0D4B2A7804464FF47A71186822
:1005A000B1FBF2F2B0FBF2F000F049F850B9102CB8
:1005B00008D2002221464FF0FF3000F023F8AC6053
:1005C000002032BD012032BD000000200C000020C0
:1005D0000901020002D4244881547047234B02F0E1
:1005E0000F021A4402F8041C7047214B19684FF699
:1005F000FF020002114000F4E06008431D49084377
:100600001860704770B51A4B1C68C4F302230124AC
:10061000C3F10705052D2EBF0F2504FA05F56D1E44
:100620001E1D072E34BF0023DB1E2940994004FA0B
:1006300003F3BDE870405B1E1A401143C8E710B5D4
:10064000401EB0F1807F01D3012010BD0A4C6060D4
:100650000F214FF0FF30FFF7BBFF0021A160072003
:100660002060002010BD000000E400E018ED00E074
:100670000CED00E00000FA0510E000E0F8B50446DB
:1006800000270026002C71D004F12405686820B9E9
:10069000AE602870204600F034F9204600F0F2F8F1
:1006A0006968CA065ED401005CD1696821F488518A
:1006B00041F0020169606368E269217B1343A2682B
:1006C000B2F5807F14BF012A4FF48077227D012A82
:1006D00043EA41030FD131B9A169491E490341F4ED
:1006E00000610F4307E0696841F020016960A96873
:1006F00041F00101A96021684A6822F46942174368
:100700004F602268DFF8641197680F401F439760BD
:10071000A168B1F5807F18BF012902D12669761E34
:1007200036052168CA6A22F470021643CE62246834
:10073000DFF83C11A2680A409A4208D10023AB605E
:10074000696821F0020141F001016960F2BD686849
:1007500020F0020040F010006860A86840F001003E
:10076000A86003E0686840F0100068600120F2BDF6
:10077000F8B50A46002100F1240300911C78012CF1
:1007800001D10220F2BD01241C701F275468156896
:100790000668072C08D2641E04EB8404D6F834C023
:1007A00000F05EF8756312E00D2C08D2E41F04EB34
:1007B0008404D6F830C000F053F8356307E00D3CF0
:1007C00004EB8404D6F82CC000F04AF8F562072741
:1007D0001668946805680A2E08D30A3E06EB46069A
:1007E000D5F80CC000F036F8EC6006E006EB4606E3
:1007F000D5F810C000F02EF82C611468102C18BF2A
:10080000112C23D100681C4CA0421AD11B4805684A
:100810002C021BD4056845F40005056010681028FB
:1008200014D1144A164D1468B4FBF5F50A2045435B
:100830000095009800281EBF0098401E0090F8D137
:1008400004E00121586840F0200058600020187032
:100850000846F2BDB7402CEA0707B4403C43704756
:10086000A7402CEA0707A5403D437047FDF7E1FF8D
:10087000FE0E1FFF0C000020002401400824014050
:1008800040420F0038B5044620688168CA0719D570
:100890008168490849008160FFF774FE05462068B9
:1008A0008168C8070ED5FFF76DFE401B0328F6D3FD
:1008B000A06A40F01000A062E06A40F00100E0622F
:1008C000012032BD002032BD224881B0016841F0D4
:1008D00001010160026802F0010200920099426881
:1008E00042F080524260406800F0805000900098D2
:1008F0001948016821F0E06141F00071016001B028
:10090000704718B585B004461022002101A800F0F8
:1009100029F82168114881421AD10E48016841F432
:10092000007101600323026802F4007200920099D2
:10093000026842F0040202600722006800F004002E
:10094000009000990192029301A9054800F014F863
:1009500006B010BD18100240040001400024014000
:100960000008014010B5044610460A4601462046DC
:1009700000F0E8F8204610BD2DE9F8474FF0000ED2
:100980000024634A634BDFF890814FF00F098246E1
:100990000CE0D7683840D06006E095604D68AD0245
:1009A000F7D5D0680743D7600EF1010E0F6837FA0C
:1009B0000EF000F09F80012000FA0EF63740B7429B
:1009C000F2D1486838B301281AD002281DD0032874
:1009D0002ED0112816D012281AD0504DA8421CBF74
:1009E0004F4DA84217D04F4DA8421CBF4E4DA842B4
:1009F00011D04E4DA8421CBF4D4DA8420BD018E05F
:100A0000CC6816E0CC68241D13E0CC68083410E0F4
:100A1000CC680C340DE0886808B9042409E001288A
:100A200019BF0824CAF814600824CAF8106000E04E
:100A30000024B7F5807F03D250464FEA8E0C05E0C4
:100A4000AEF108050AF104004FEA850C056809FAC1
:100A50000CF6B54304FA0CF6354305604868C0004F
:100A6000A2D5D8F8000040F00100C8F80000D8F87E
:100A7000005005F0010500954FEA8E0500984FEAF9
:100A80009E0053F8206005F00C0C09FA0CF526EADC
:100A90000505284EB24508BF00260ED0264EB245A9
:100AA00008BF012609D0254EB24508BF022604D052
:100AB000234EB2450CBF0326042606FA0CF6354336
:100AC00043F82050F8434D68ED0315684CBF3D4393
:100AD000054015604D68AD0355684CBF3D4305406A
:100AE00055604D689668ED024CBF47EA060500EA7E
:100AF000060552E7BDE8F18702B9090401617047B4
:100B0000C26801EA0203914341EA0341016170476F
:100B100000040140080001401810024000001110BC
:100B200000001210000021100000221000003110FF
:100B30000000321000080140000C0140001001408C
:100B40000014014062F30F2262F31F42401810F0BC
:100B5000030308D0C91A1FD3DB0748BF00F8012DD3
:100B600028BF20F8022D130030B414461546103962
:100B700028BF20E93C00FAD8490728BF20E90C002B
:100B800048BF40F8042D890028BF20F8022D48BF37
:100B900000F8012D30BC7047C91818BF00F8012DAE
:100BA000CB0728BF00F8012D7047000030B585B095
:100BB00000F098F800F066F81022002101A8FFF775
:100BC000D1FE2C482C4C01682C4D41F010010160E5
:100BD000026802F0100200920099026842F02002BE
:100BE0000260036803F0200300930099026842F05A
:100BF000040202600022006800F0040000904FF43C
:100C0000005100982046FFF777FF4FF40051019103
:100C100001220292002103910222049201A920469E
:100C2000FFF7AAFE0C2200216846FFF79BFE002179
:100C3000A96029734FF4602111482860E961002000
:100C400028756860012129612846FFF717FD0020FB
:100C5000012100900191029069462846FFF788FD26
:100C60004FF400512046FFF74BFF192000F04CF8DD
:100C7000F6E70000181002400010014010000020AC
:100C80000024014000B593B02822002109A8FFF7F5
:100C900069FE142200216846FFF764FE102200213D
:100CA00005A8FFF75FFE0221012209910D92102194
:100CB00000220E91109209A8FFF718FA0F20009059
:100CC000002101910291039104916846FFF798FB7E
:100CD000022100220591079205A800F029F813B01F
:100CE00000BD000080B50748016841F010010160B7
:100CF0000320FFF77AFC0020FFF74AFCFFF7E4FD32
:100D0000002002BD0020024038B50446FFF73AFC3F
:100D100014F1010F054602D0044908780419FFF7C1
:100D200031FC401BA042FAD331BD00BF00000020BF
:100D30002DE9FC410646354D3078C10750D5A869EC
:100D40000024C10009D4A86940F08050A8610124A2
:100D5000A86900F08050009000982D4F3868C105B8
:100D600011D4386840F480703860FFF70BFC80467F
:100D70003868C10507D4FFF705FCA0EB080065281B
:100D8000F6D303203FE0E86910F440701EBF71689D
:100D900001F44071884218D01E49E86901220A60B6
:100DA000002320F440700B60E861C0070DD5FFF709
:100DB000E9FB0746E869810707D4FFF7E3FBC01B9F
:100DC00041F289318842F5D3DBE7EA69706822F4A1
:100DD00040720243EA611CB1A86920F08050A8610A
:100DE0003078810705D52A68B06822F44042024372
:100DF0002A603178C80605D52968F06821F4800199
:100E0000014329600020BDE8F68100000410024083
:100E1000007000404004424230B5016884684218C6
:100E2000416802EB5103C90703D54C4401E0491C5A
:100E300005D19A420AD012F9011B12F8015B002970
:100E400004F8015BF3D4491EF7D5F2E70C3030BD4E
:100E500010B5074979441831064C7C44163404E037
:100E60000A68081D114488470146A142F8D110BD07
:100E70000800000014000000A1FFFFFF5401000063
:100E80001A0000000000002000F00DF8002801D03A
:100E9000FFF7DEFFAFF300800020AFF30080FFF725
:100EA00085FE00F002F80120704700F001B8000054
:100EB0000746384600F002F8FBE7000080B5AFF3C4
:100EC0000080024A11001820ABBEFBE7260002009A
:100ED0007047FEE7FEE7FEE7FEE7704770477047A2
:100EE00000F000B802494A68087882184A607047E2
:100EF000000000207047000000000000000000001B
:100F00000102030406070809014880470148004719
:100F1000F50E0008190F0008AFF30080AFF3008052
:100F2000FFF7B2FFFFF7FEBFFFF7FEBFFFF7FEBF01
:100F3000FFF7FEBFFFF7FEBFFFF7FEBFFFF7FEBFE5
:100F4000FFF7FEBFFFF7FEBFFFF7FEBFFFF7FEBFD5
:100F5000FFF7FEBFFFF7FEBFFFF7FEBFFFF7FEBFC5
:100F6000FFF7FEBFFFF7FEBFFFF7FEBFFFF7FEBFB5
:100F7000FFF7FEBFFFF7FEBFFFF7FEBFFFF7FEBFA5
:100F8000FFF7FEBFFFF7FEBFFFF7FEBFFFF7FEBF95
:100F9000FFF7FEBFFFF7FEBFFFF7FEBFFFF7FEBF85
:100FA000FFF7FEBFFFF7FEBFFFF7FEBFFFF7FEBF75
:100FB000FFF7FEBFFFF7FEBFFFF7FEBFFFF7FEBF65
:100FC000FFF7FEBFFFF7FEBFFFF7FEBFFFF7FEBF55
:0D0FD0000001F9000010FC000124F4CF0026
:0400000508000F19C7
:00000001FF
