:020000040800F2
:1000000058040020D90D0008A10D0008A30D000818
:10001000A50D0008A70D0008A90D000800000000AC
:10002000000000000000000000000000AB0D000810
:10003000AD0D000800000000AF0D0008B10D000874
:10004000FD0D0008010E0008050E0008090E00084D
:100050000D0E0008110E0008150E0008190E0008FC
:100060001D0E0008210E0008250E0008290E0008AC
:100070002D0E0008310E0008350E0008390E00085C
:100080003D0E0008410E0008450E0008490E00080C
:100090004D0E0008510E0008550E0008590E0008BC
:1000A0005D0E0008610E0008650E0008690E00086C
:1000B0006D0E0008710E0008750E0008790E00081C
:1000C0007D0E0008810E0008850E0008890E0008CC
:1000D0008D0E0008910E0008950E0008990E00087C
:1000E0009D0E0008A10E0008A50E00082DE9F8439A
:1000F000040016D02078DFF87064C10713D570684B
:1001000000F00C00042807D0706800F00C000828EC
:1001100041D17068C1033ED53068810303D5606862
:10012000002800F064812078DFF84C74810719D52D
:10013000706810F00C0F07D0706800F00C000828F1
:1001400061D17068C1035ED43068810703D520692E
:10015000012840F04C813168606921F0F80141EAE2
:10016000C00131602178080740F18180A069DFF883
:100170000C14002800F0A68001220A6000F016FA94
:100180000546706A810763D400F010FA401B02280C
:10019000F7D903202EE16068B0F5803F04D13068C4
:1001A00040F48030306014E008B930680AE0B0F5FF
:1001B000A02F306806D140F480203060316841F4CF
:1001C000803105E020F480303060316821F48021F6
:1001D0003160606858B100F0E9F905463068810384
:1001E000A1D400F0E3F9401B6528F7D3D1E700F074
:1001F000DDF905463068810395D500F0D7F9401B3D
:100200006528F7D3C5E72069A8B10121396000F05E
:10021000CDF905463068810705D400F0C7F9401BC9
:100220000228F7D9B5E73068616920F0F80040EAA4
:10023000C100306096E7386000F0B8F905463168D3
:1002400088078FD500F0B2F9401B0228F7D9A0E744
:10025000DFF818030168C9084FF47A72B1FBF2F2B3
:10026000009200BF0098411E00280091F9D120782B
:1002700041076ED5F0690025C10009D4F06940F04E
:100280008050F0610125F06900F0805000900098E6
:10029000DFF8EC82D8F80000C10520D4D8F80000BF
:1002A00040F48070C8F8000000F080F98146D8F86A
:1002B0000000C10513D400F079F9A0EB090065280E
:1002C000F5D366E7086000F071F90546706A8107AA
:1002D000CDD500F06BF9401B0228F7D959E7E0684B
:1002E000012808D008B9306A09E00528306A06D12B
:1002F00040F004003062306A40F0010005E0400840
:1003000040003062306A20F00400306241F28938E7
:10031000E06860B100F04AF98146306A810713D481
:1003200000F044F9A0EB09004045F6D331E700F0B6
:100330003DF98146306A810706D500F037F9A0EB18
:1003400009004045F6D324E71DB1F06920F0805044
:10035000F061E06900284CD0716801F00C010829B7
:1003600038D002282AD100F047F8054630688101CC
:1003700005D500F01BF9401B0228F7D909E7206AD0
:10038000B0F5803F05D17168A06821F400310143C8
:1003900071607268206A616A22F4741202430A432F
:1003A0007260012000F029F804463068810120D4F1
:1003B00000F0FCF8001B0228F7D9EAE600F01CF870
:1003C00004463068810114D500F0F0F8001B0228C3
:1003D000F7D9DEE601280AD07068226A00F480317D
:1003E000914202BF00F47010616A884201D001207E
:1003F00000E00020BDE8F2830020386600F0D6B8A7
:100400002DE9F041040088464ED05E4E00F077F8AA
:1004100002D200F06FF847D12068534D810712D502
:10042000400703D5696841F4E061696020780107FD
:1004300003D5686840F4605068606968A06821F07E
:10044000F001014369602178C80725D5606801285B
:1004500002D129688A0303E00228296802D18A01AF
:1004600002D421E08A071FD56968890840EA810023
:10047000686000F09BF807466868616800F00C004F
:10048000B0EB810F08D000F091F8C01B41F2893128
:100490008842F1D303202BE0306800F0070080454C
:1004A00004D200F027F801D0012021E02078410794
:1004B00005D56A68E06822F4E06202436A60217848
:1004C000080706D56968206921F4605141EAC00136
:1004D000696000F019F86A682B49244BC2F30312D3
:1004E000895CC84018602348006800F065F8002067
:1004F000BDE8F0813168C90848EAC101316030685F
:1005000000F0070040457047204919480A6802F08A
:100510000C03082B00D0704710B500BF1EA4C2F317
:100520008343D203E35C08D5096858431EA3C1F393
:1005300040415A5CB0FBF2F010BD184614494843E4
:1005400010BD0A48114A006813681249C3F3022219
:1005500006E006480D4A006813680E49C3F3C2223C
:10056000895CC84070470000001002400C00002069
:1005700000127A000800002000004242800442423B
:100580000070004000200240C80D00080410024026
:1005900000093D00F40D00080203040506070809E0
:1005A0000A0B0C0D0E0F10100102000001484068EC
:1005B000704700BF0000002038B50D4D0D4B2A7864
:1005C00004464FF47A711868B1FBF2F2B0FBF2F016
:1005D00000F049F850B9102C08D2002221464FF003
:1005E000FF3000F023F8AC60002032BD012032BDA6
:1005F000000000200C0000200901020002D4244861
:1006000081547047234B02F00F021A4402F8041C75
:100610007047214B19684FF6FF020002114000F4A9
:10062000E06008431D4908431860704770B51A4BD5
:100630001C68C4F302230124C3F10705052D2EBF56
:100640000F2504FA05F56D1E1E1D072E34BF00236D
:10065000DB1E2940994004FA03F3BDE870405B1E9D
:100660001A401143C8E710B5401EB0F1807F01D396
:10067000012010BD0A4C60600F214FF0FF30FFF7E2
:10068000BBFF0021A16007202060002010BD0000FA
:1006900000E400E018ED00E00CED00E00000FA05D9
:1006A00010E000E038B5040001D1012032BD00F0B7
:1006B00026F808B900F014F800F017F800F023F855
:1006C000FFE7416100F001F832BD2068C16841F4E4
:1006D0000051C1600020686020216970A9707047D6
:1006E00000212970204600F0FEB8242068702068A0
:1006F000C16821F40051C160204600F098B804F1AF
:100700003C05687870472068016921F490410161D7
:100710002068416921F02A0170472DE9F843054618
:1007200005F13C060C46707820281746994649D1B9
:100730000CB1380001D1012045E03078012841D0CA
:10074000012131700020706021227270FFF72EFFAE
:10075000AF848046EF84A868B0F5805F04BF286945
:1007600000280EBF2746204600270021317004468E
:100770000EE014F8012B426007E02868002CF8D145
:1007800037F8021BC1F308014160E88C411EE9847F
:100790004346E88CCDF80090002807D00022802145
:1007A000284600F012F80028E7D005E0002240219A
:1007B000284600F00AF808B1032004E020207070F9
:1007C000002000E00220BDE8F2832DE9F041069C04
:1007D00005460E4690461F46286801683140B142E2
:1007E0000CBF01200020404517D114F1010FF3D0B8
:1007F00024B1FFF7DBFEC01B8442EDD22868C1683C
:1008000021F4D07100F00CF805F13C00202141707A
:10081000817000210170032000E00020BDE8F0811C
:10082000C16028684169490849004161704710B5B5
:10083000044622681169E06821F4405101431161C6
:10084000D3681849A0680B402169034360690B43D2
:100850000343D3605169A06921F4407101435161A0
:1008600011498A4202D1FFF774FE01E0FFF769FEE9
:100870006268192148439200B0FBF2F16423B1FB96
:10088000F3F203FB121109013231B1FBF3F000F076
:10089000F00101EB0211226800F00F004018906097
:1008A00010BD0000F3E9FFFF00380140294881B086
:1008B000016841F001010160026802F0010200924A
:1008C0000099426842F080524260406800F08050D7
:1008D000009000982048016821F0E06141F000712B
:1008E000016001B0704718B585B0044610220021A0
:1008F000684600F037F821681848814228D1154829
:10090000174C016841F480410160026802F48042A2
:1009100004920499026842F0040202604FF40071EC
:10092000006800F0040004900222049800910192F3
:10093000032103912046694600F01EF84FF48060C1
:1009400000210090019102912046694600F014F8C0
:1009500006B010BD181002400400014000380140EC
:100960000008014010B5044610460A4601462046DC
:1009700000F0DCF8204610BD2DE9F8474FF0000EDE
:1009800000245D4A5D4BDFF878814FF00F09824605
:100990000CE0D7683840D06006E095604D68AD0245
:1009A000F7D5D0680743D7600EF1010E0F6837FA0C
:1009B0000EF000F09F80012000FA0EF63740B7429B
:1009C000F2D1486838B301281AD002281DD0032874
:1009D0002ED0112816D012281AD04A4DA8421CBF7A
:1009E000494DA84217D0494DA8421CBF484DA842C6
:1009F00011D0484DA8421CBF474DA8420BD018E06B
:100A0000CC6816E0CC68241D13E0CC68083410E0F4
:100A1000CC680C340DE0886808B9042409E001288A
:100A200019BF0824CAF814600824CAF8106000E04E
:100A30000024B7F5807F03D250464FEA8E0C05E0C4
:100A4000AEF108050AF104004FEA850C056809FAC1
:100A50000CF6B54304FA0CF6354305604868C0004F
:100A6000A2D5D8F8000040F00100C8F80000D8F87E
:100A7000005005F0010500954FEA8E0500984FEAF9
:100A80009E0053F8206005F00C0C09FA0CF526EADC
:100A90000505224EB24508BF00260ED0204EB245B5
:100AA00008BF012609D01F4EB24508BF022604D058
:100AB0001D4EB2450CBF0326042606FA0CF635433C
:100AC00043F82050F8434D68ED0315684CBF3D4393
:100AD000054015604D68AD0355684CBF3D4305406A
:100AE00055604D689668ED024CBF47EA060500EA7E
:100AF000060552E7BDE8F187000401400800014007
:100B00001810024000001110000012100000211007
:100B100000002210000031100000321000080140D7
:100B2000000C0140001001400014014062F30F224C
:100B300062F31F42401810F0030308D0C91A1FD3F4
:100B4000DB0748BF00F8012D28BF20F8022D130055
:100B500030B414461546103928BF20E93C00FAD8B5
:100B6000490728BF20E90C0048BF40F8042D890040
:100B700028BF20F8022D48BF00F8012D30BC704777
:100B8000C91818BF00F8012DCB0728BF00F8012DA8
:100B9000704700001FB500F075F800F03FF81C48E2
:100BA0001C4C016841F020010160026802F0200243
:100BB000009200990268184942F0040202604FF462
:100BC000E132006800F004000090009821600020ED
:100BD000A060E06020610C21A061E0616260616161
:100BE0002046FFF75FFD08B100F042F84FEA0D0024
:100BF00020A1102200F058F84FF47A730E226946B3
:100C00002046FFF78AFD4FF47A7000F059F8EDE7BF
:100C100018100240100000200038014000B58FB0CD
:100C20002822002105A8FFF79DFE14220021684616
:100C3000FFF798FE012005904FF4803100220691C5
:100C40000C9205A8FFF752FA08B172B6FEE701212F
:100C500001910F2000900022002102920391049242
:100C60006846FFF7CDFB08B172B6FEE70FB000BDD6
:100C700072B6FEE748656C6C6F20776F726C640D1E
:100C80000A00000080B50748016841F010010160CA
:100C90000320FFF7BEFC0020FFF78EFCFFF706FEE7
:100CA000002002BD002002404AB1000011F8013BC3
:100CB000521E00F8013B1CBF11F8013BF8E77047DA
:100CC00038B50446FFF772FC14F1010F054602D057
:100CD000044908780419FFF769FC401BA042FAD3C5
:100CE00031BD00BF0000002030B5016884684218A3
:100CF000416802EB5103C90703D54C4401E0491C8C
:100D000005D19A420AD012F9011B12F8015B0029A1
:100D100004F8015BF3D4491EF7D5F2E70C3030BD7F
:100D200010B5074979441831064C7C44163404E068
:100D30000A68081D114488470146A142F8D110BD38
:100D40000800000014000000A1FFFFFF5C0100008C
:100D50001A0000000000002000F00DF8002801D06B
:100D6000FFF7DEFFAFF300800020AFF30080FFF756
:100D700011FF00F002F80120704700F001B80000F8
:100D80000746384600F002F8FBE7000080B5AFF3F5
:100D90000080024A11001820ABBEFBE726000200CB
:100DA000FEE7FEE7FEE7FEE7FEE7704770477047A5
:100DB00000F000B802494A68087882184A60704713
:100DC000000000207047000000000000000000004C
:100DD000010203040607080901488047014800474B
:100DE000C50D0008E90D0008AFF30080AFF30080E7
:100DF000FFF7B2FF0000000001020304FFF7FEBF8F
:100E0000FFF7FEBFFFF7FEBFFFF7FEBFFFF7FEBF16
:100E1000FFF7FEBFFFF7FEBFFFF7FEBFFFF7FEBF06
:100E2000FFF7FEBFFFF7FEBFFFF7FEBFFFF7FEBFF6
:100E3000FFF7FEBFFFF7FEBFFFF7FEBFFFF7FEBFE6
:100E4000FFF7FEBFFFF7FEBFFFF7FEBFFFF7FEBFD6
:100E5000FFF7FEBFFFF7FEBFFFF7FEBFFFF7FEBFC6
:100E6000FFF7FEBFFFF7FEBFFFF7FEBFFFF7FEBFB6
:100E7000FFF7FEBFFFF7FEBFFFF7FEBFFFF7FEBFA6
:100E8000FFF7FEBFFFF7FEBFFFF7FEBFFFF7FEBF96
:100E9000FFF7FEBFFFF7FEBFFFF7FEBFFFF7FEBF86
:100EA000FFF7FEBFFFF7FEBF0001F9000010FC00D6
:050EB0000124F4BB0069
:0400000508000DE9F9
:00000001FF
